:1000000000308A003C28000024308400831300085C
:10001000031918280130F800F701F70B0D28F80B29
:100020000C284A30F700F70B13281628800B0A28F3
:1000300008001F308316860083120617E0308316EF
:100040008500831285150430A300FA30A400042033
:10005000A30B25281F308316860083120613E03079
:1000600083168500831285110430A300FA30A400A2
:100070000420A30B3628080003081F39830007302B
:1000800083169C00831304308312A300FA30A4006B
:100090000420A30B462819200430A300FA30A40042
:1000A0000420A30B4E2819200430A300FA30A4002A
:1000B0000420A30B5628A2012008220203186A2854
:1000C00019200230A300FA30A4000420A30B6328F7
:1000D000A20A5C280830A300FA30A4000420A30B75
:0600E0006C285B286300A0
:04400E00693FFF3FC8
:00000001FF
;PIC16F87
;CRC=D076  CREATED="09-paü-14 19:18"
