:1000000000308A00A6280000173084000008031979
:10001000172801308D008C018C0B0C288D0B0B28C0
:100020004A308C008C0B12281528800B09280034CC
:100030000A309700042083160512831205128316D6
:1000400085118312851183160511831205118316FC
:1000500085108312851083160510831205108316F0
:1000600086138312861383160613831206138316D0
:100070008612831286120A30970004208316851197
:100080008312851515089600023097000420161C6F
:100090004E28831605118312051552288316051163
:1000A000831205110230970004200310960C161CD1
:1000B0005E288316851083128514622883168510A6
:1000C000831285100230970004200310960C161C32
:1000D0006E288316051083120514722883160510E6
:1000E000831205100230970004200310960C161C92
:1000F0007E2883168613831286178228831686131A
:10010000831286130230970004200310960C161CED
:100110008E28831606138312061792288316061359
:10012000831206130230970004200310960C161C4D
:100130009E288316861283128616A228831686129C
:1001400083128612023097000420C32884011F30D6
:10015000830591019201930104309500FA309700D4
:100160000420950BAE280130940014083B3C031C7E
:10017000C52804309500FA3097000420950BBB2861
:0E018000140895001828940AB528B3286300C7
:02400E00F13F80
:00000001FF
;PIC16F84A
;CRC=6FF5  CREATED="05-lis-19 14:31"
