:1000000002308A00812A000028308400831300080F
:10001000031918280130F800F701F70B0D28F80B29
:100020000C284A30F700F70B13281628800B0A28F3
:10003000080083160616861483128A11942A083043
:10004000F800000006128316061200008312A80DA5
:100050008610031C2E288316861483120318332857
:10006000831686108312831606168312061E362800
:10007000F80B2128000006128316061200008614D1
:100080000000000006168312061E4428F801000036
:1000900086187814061283160612831286108316A9
:1000A00086108312080083168614000006160000CE
:1000B0008312061E592886108316861000008312AC
:1000C000061283160612D0308312A8001F202308C0
:1000D000A8001F2083168614000006160000831255
:1000E000061E7028861083168610000083120612E2
:1000F00083160612D1308312A8001F20F7010830A2
:10010000A6007708A700831686140000061683123F
:10011000061E882886180314861C0310F80D00009C
:100120008316061283120612A60B832883168614E2
:1001300000008312861027080319A1288316861051
:1001400083120000831606168312061EA5280000DF
:10015000061283160612000083128610831686107C
:1001600078088312A40083168610000006168312F6
:10017000061EB8280000BC28000083168614000064
:1001800083122408F800080083168614000006165F
:100190000000831286108316861000008312061258
:1001A00083160612D0308312A8001F202408A8004E
:1001B0001F202508A8001F208316861000000616A1
:1001C0008312061EE1280000E5280000831686142D
:1001D00000008614000006160000831286108316A5
:1001E000861000008312061283160612D030831286
:1001F000A8001F207808261078182614D030A700F1
:10020000261806292708043C031C23298316861474
:100210000000061600008312061E0C2986108316A5
:10022000861000008312061283160612D030831245
:10023000A8001F207808261078182614A70A143062
:10024000A8000420002908000A30A8000420831612
:1002500005128312051283168511831285118316E8
:1002600005118312051183168510831285108316DC
:1002700005108312051083168613831286138316C6
:1002800006138312061383168612831286120A300F
:10029000A800042008000230A8000420241C5529CE
:1002A000831605118312051559298316051183122A
:1002B00005110230A80004200310A40C241C652999
:1002C000831685108312851469298316851083127D
:1002D00085100230A80004200310A40C241C7529EA
:1002E00083160510831205147929831605108312CD
:1002F00005100230A80004200310A40C241C85293A
:100300008316861383128617892983168613831210
:1003100086130230A80004200310A40C241C952985
:100320008316061383120617992983160613831260
:1003300006130230A80004200310A40C241CA529D5
:100340008316861283128616A929831686128312B3
:1003500086120230A80004200800A3012308093CEB
:10036000031CC22924213230A80004208316051260
:10037000831205160530A4004B213230A80004205A
:10038000A30AAE290800242183168511831285153E
:100390002308A4004B2108002608F80125020318B1
:1003A000D4292508F700E029F7010830A700A50D9A
:1003B000F70D260877020318F700F80DA70BD729C9
:1003C00008002308A5000A30A600CC21780EA4005E
:1003D000F030A4052308A5000A30A600CC21770838
:1003E0002407F80008000130A300E1217808A300E9
:1003F0000430A4007808A500C4200130A300E12146
:100400007808A3000530A4007808A500C4200130B6
:10041000A300E1217808A3000630A4007808A50015
:10042000C4202008A300E1217808A3000230A40022
:100430007808A500C4202108A300E1217808A300C2
:100440000130A4007808A500C4202208A300E121FF
:100450007808A300A4017808A500C4208A11122BF3
:10046000240EF7000F30F7057708A6002608A7002E
:100470000A30A800F701F801270803102818F70729
:10048000F70CF80CA818F707F70CF80C2819F70761
:10049000F70CF80CA819F707F70CF80C281AF7074F
:1004A000F70CF80CA81AF707F70CF80C281BF7073D
:1004B000F70CF80CA81BF707F70CF80C7808A50048
:1004C00024080F397807F8000800A30153207808A2
:1004D000A300A40030227808A2000130A30053201A
:1004E0007808A300A40030227808A1000230A300FD
:1004F00053207808A300A40030227808A0008A11B5
:10050000172B03081F398300073083169C008313C1
:100510008312A001A101A2010430A300FA30A800B7
:100520000420A30B8E2A1928A301532078087F39B1
:10053000A300A4012308A500C4200230A300FA30C0
:10054000A8000420A30B9F2A0230A300FA30A800C1
:100550000420A30BA62A831606158312061D132B4F
:10056000AD210230A300FA30A8000420A30BB32A67
:10057000242183160512831205160130A4004B2195
:100580000430A300FA30A8000420A30BC22A83166B
:10059000061583120619E42A2108A300C321831635
:1005A00086158312861DDC2A21083B3C031CDB2AAE
:1005B0000130A107DC2AA1010230A3009630A80077
:1005C0000420A30BDE2AC72AAD212421831605129D
:1005D000831205160430A4004B210430A300FA3026
:1005E000A8000420A30BEF2A831606158312061910
:1005F000112B2008A300C321831686158312861DA4
:10060000092B2008173C031C082B0130A007092BDD
:10061000A0010230A3009630A8000420A30B0B2BEE
:10062000F42AF329AD21A001A101A201652A200825
:10063000063C03187B2B2008113C031C7B2B8316E4
:100640000610831206142421831605128312051640
:100650000530A4004B210430A300FA30A800042088
:10066000A30B2D2B2208A300C3218316851183120F
:1006700085150830A300FA30A8000420A30B3B2BFB
:10068000242183160512831205160130A4004B2184
:100690000430A300FA30A8000420A30B4A2B210841
:1006A000A300C32183168511831285150830A3008A
:1006B000FA30A8000420A30B582B2421831605121E
:1006C000831205160430A4004B210430A300FA3035
:1006D000A8000420A30B672B2008A300C3218316C6
:1006E0008511831285150830A300FA30A800042074
:1006F000A30B752B7F2B8316061083120610AB2AD3
:02070000630094
:04400E00213FFF3F10
:00000001FF
;PIC16F87
;CRC=DC29  CREATED="13-lis-14 18:48"
